{
  "contractName": "SwordMetadata",
  "abi": [
    {
      "inputs": [],
      "stateMutability": "nonpayable",
      "type": "constructor"
    },
    {
      "inputs": [],
      "name": "owner",
      "outputs": [
        {
          "internalType": "address",
          "name": "",
          "type": "address"
        }
      ],
      "stateMutability": "view",
      "type": "function",
      "constant": true
    },
    {
      "inputs": [
        {
          "internalType": "uint256",
          "name": "tokenId",
          "type": "uint256"
        },
        {
          "internalType": "uint256",
          "name": "tokenNumber",
          "type": "uint256"
        },
        {
          "internalType": "string",
          "name": "imgURI",
          "type": "string"
        }
      ],
      "name": "tokenMetadata",
      "outputs": [
        {
          "internalType": "string",
          "name": "",
          "type": "string"
        }
      ],
      "stateMutability": "pure",
      "type": "function",
      "constant": true
    },
    {
      "inputs": [],
      "name": "name",
      "outputs": [
        {
          "internalType": "string",
          "name": "",
          "type": "string"
        }
      ],
      "stateMutability": "pure",
      "type": "function",
      "constant": true
    },
    {
      "inputs": [
        {
          "internalType": "uint256",
          "name": "",
          "type": "uint256"
        }
      ],
      "name": "description",
      "outputs": [
        {
          "internalType": "string",
          "name": "",
          "type": "string"
        }
      ],
      "stateMutability": "pure",
      "type": "function",
      "constant": true
    }
  ],
  "bytecode": "0x608060405234801561001057600080fd5b50600080546001600160a01b03191633179055610fce806100326000396000f3fe608060405234801561001057600080fd5b506004361061004c5760003560e01c806306fdde03146100515780632c5f13e0146100885780637313d0f6146100ce5780638da5cb5b146100e1575b600080fd5b60408051808201909152600981526815d9588cd4dddbdc9960ba1b60208201525b60405161007f9190610bad565b60405180910390f35b610072610096366004610be0565b5060408051808201909152601881527f4120667261676d656e74206f6620576562332053776f72640000000000000000602082015290565b6100726100dc366004610c0f565b61010c565b6000546100f4906001600160a01b031681565b6040516001600160a01b03909116815260200161007f565b6060600061014261011e86868661016e565b60405160200161012e9190610cd3565b60405160208183030381529060405261022d565b9050806040516020016101559190610cef565b6040516020818303038152906040529150509392505050565b6040805160e08101909152600960a082019081526815d9588cd4dddbdc9960ba1b60c083015260609160009181906101a587610393565b6101ae89610393565b6040516020016101c093929190610d34565b60405160208183030381529060405281526020016101dd86610393565b81526020016040518060400160405280600781526020016615d9588cd05c9d60ca1b81525081526020018481526020016102178787610499565b90529050610224816105d1565b95945050505050565b606081516000141561024d57505060408051602081019091526000815290565b6000604051806060016040528060408152602001610f59604091399050600060038451600261027c9190610dab565b6102869190610dd9565b610291906004610ded565b905060006102a0826020610dab565b67ffffffffffffffff8111156102b8576102b8610bf9565b6040519080825280601f01601f1916602001820160405280156102e2576020820181803683370190505b509050818152600183018586518101602084015b8183101561034e576003830192508251603f8160121c168501518253600182019150603f81600c1c168501518253600182019150603f8160061c168501518253600182019150603f81168501518253506001016102f6565b600389510660018114610368576002811461037957610385565b613d3d60f01b600119830152610385565b603d60f81b6000198301525b509398975050505050505050565b6060816103b75750506040805180820190915260018152600360fc1b602082015290565b8160005b81156103e157806103cb81610e0c565b91506103da9050600a83610dd9565b91506103bb565b60008167ffffffffffffffff8111156103fc576103fc610bf9565b6040519080825280601f01601f191660200182016040528015610426576020820181803683370190505b5090505b84156104915761043b600183610e27565b9150610448600a86610e3e565b610453906030610dab565b60f81b81838151811061046857610468610e52565b60200101906001600160f81b031916908160001a90535061048a600a86610dd9565b945061042a565b949350505050565b60408051600180825281830190925260609160009190816020015b6040805160c081018252600080825260208083018290529282015260608082018190526080820181905260a082015282526000199092019101816104b45790505090506105ac60006001600060405180604001604052806006815260200165373ab6b132b960d11b8152506040518060400160405280600381526020016227279760e91b81525061054489610393565b6040805160c0810182526000808252602082018190529181019190915260608082018190526080820181905260a0820152506040805160c08101825296151587529415156020870152921515938501939093526060840152608083019190915260a082015290565b816000815181106105bf576105bf610e52565b60209081029190910101529392505050565b606080806105dd6107bf565b6040516020016105ee929190610e68565b60408051601f1981840301815282820190915260048252636e616d6560e01b6020830152845190925082916106249160016107e7565b604051602001610635929190610e68565b60405160208183030381529060405290508061067a6040518060400160405280600b81526020016a3232b9b1b934b83a34b7b760a91b815250856020015160016107e7565b60405160200161068b929190610e68565b60408051601f198184030181528282018252600a835269637265617465645f627960b01b60208401529085015190925082916106c89160016107e7565b6040516020016106d9929190610e68565b60408051601f198184030181528282019091526005825264696d61676560d81b6020830152606085015190925082916107139160016107e7565b604051602001610724929190610e68565b60408051601f19818403018152828201909152600a8252696174747269627574657360b01b60208301526080850151909250829161076c916107659061084a565b6000610904565b60405160200161077d929190610e68565b60405160208183030381529060405290508061079761094f565b6040516020016107a8929190610e68565b60408051601f198184030181529190529392505050565b604051607b60f81b60208201526060906021015b604051602081830303815290604052905090565b60608383836108055760405180602001604052806000815250610820565b604051806040016040528060018152602001600b60fa1b8152505b60405160200161083293929190610e97565b60405160208183030381529060405290509392505050565b60608080610856610967565b604051602001610867929190610e68565b604051602081830303815290604052905060005b83518110156108fa57600084828151811061089857610898610e52565b60200260200101519050826108c46108af8361097f565b600188516108bd9190610e27565b8510610b05565b6040516020016108d5929190610e68565b60405160208183030381529060405292505080806108f290610e0c565b91505061087b565b5080610797610b65565b6060838383610922576040518060200160405280600081525061093d565b604051806040016040528060018152602001600b60fa1b8152505b60405160200161083293929190610f02565b604051607d60f81b60208201526060906021016107d3565b604051605b60f81b60208201526060906021016107d3565b6060808061098b6107bf565b60405160200161099c929190610e68565b6040516020818303038152906040529050826000015115610a0f57806109ec6040518060400160405280600c81526020016b646973706c61795f7479706560a01b815250856060015160016107e7565b6040516020016109fd929190610e68565b60405160208183030381529060405290505b826020015115610a6f5780610a4c6040518060400160405280600a81526020016974726169745f7479706560b01b815250856080015160016107e7565b604051602001610a5d929190610e68565b60405160208183030381529060405290505b826040015115610ace5780610aa76040518060400160405280600581526020016476616c756560d81b8152508560a0015160006107e7565b604051602001610ab8929190610e68565b6040516020818303038152906040529050610afc565b8061076c6040518060400160405280600581526020016476616c756560d81b8152508560a001516000610904565b8061079761094f565b60608282610b225760405180602001604052806000815250610b3d565b604051806040016040528060018152602001600b60fa1b8152505b604051602001610b4e929190610e68565b604051602081830303815290604052905092915050565b604051605d60f81b60208201526060906021016107d3565b60005b83811015610b98578181015183820152602001610b80565b83811115610ba7576000848401525b50505050565b6020815260008251806020840152610bcc816040850160208701610b7d565b601f01601f19169190910160400192915050565b600060208284031215610bf257600080fd5b5035919050565b634e487b7160e01b600052604160045260246000fd5b600080600060608486031215610c2457600080fd5b8335925060208401359150604084013567ffffffffffffffff80821115610c4a57600080fd5b818601915086601f830112610c5e57600080fd5b813581811115610c7057610c70610bf9565b604051601f8201601f19908116603f01168101908382118183101715610c9857610c98610bf9565b81604052828152896020848701011115610cb157600080fd5b8260208601602083013760006020848301015280955050505050509250925092565b60008251610ce5818460208701610b7d565b9190910192915050565b7f646174613a6170706c69636174696f6e2f6a736f6e3b6261736536342c000000815260008251610d2781601d850160208701610b7d565b91909101601d0192915050565b60008451610d46818460208901610b7d565b600560fb1b9083019081528451610d64816001840160208901610b7d565b6229202360e81b600192909101918201528351610d88816004840160208801610b7d565b0160040195945050505050565b634e487b7160e01b600052601160045260246000fd5b60008219821115610dbe57610dbe610d95565b500190565b634e487b7160e01b600052601260045260246000fd5b600082610de857610de8610dc3565b500490565b6000816000190483118215151615610e0757610e07610d95565b500290565b6000600019821415610e2057610e20610d95565b5060010190565b600082821015610e3957610e39610d95565b500390565b600082610e4d57610e4d610dc3565b500690565b634e487b7160e01b600052603260045260246000fd5b60008351610e7a818460208801610b7d565b835190830190610e8e818360208801610b7d565b01949350505050565b6000601160f91b8083528551610eb4816001860160208a01610b7d565b63111d101160e11b6001918501918201528551610ed8816005840160208a01610b7d565b016005810191909152835190610ef5826006830160208801610b7d565b0160060195945050505050565b601160f91b81528351600090610f1f816001850160208901610b7d565b620111d160ed1b6001918401918201528451610f42816004840160208901610b7d565b8451910190610d88816004840160208801610b7d56fe4142434445464748494a4b4c4d4e4f505152535455565758595a6162636465666768696a6b6c6d6e6f707172737475767778797a303132333435363738392b2fa2646970667358221220b3b098629b01c01512e4bf0d867e078d14516a4c463f0ec71912de7fc4d51a7764736f6c63430008090033",
  "immutableReferences": {},
  "source": "// SPDX-License-Identifier: MIT\npragma solidity ^0.8.9;\n\n// [\n// [0,0,0,0,0,0,0,1,1,0,0,0,0,0,0,0],\n// [0,0,0,0,0,0,0,1,1,0,0,0,0,0,0,0],\n// [0,0,0,0,0,0,1,1,1,1,0,0,0,0,0,0],\n// [0,0,0,0,0,0,1,1,1,1,0,0,0,0,0,0],\n// [0,0,0,0,0,0,0,1,1,0,0,0,0,0,0,0],\n// [0,0,0,0,0,0,0,1,1,0,0,0,0,0,0,0],\n// [0,0,0,0,0,0,0,1,1,0,0,0,0,0,0,0],\n// [0,0,0,0,0,0,0,1,1,0,0,0,0,0,0,0],\n// [0,0,0,0,0,0,0,1,1,0,0,0,0,0,0,0],\n// [0,0,0,0,0,0,0,1,1,0,0,0,0,0,0,0],\n// [0,0,0,0,0,0,0,1,1,0,0,0,0,0,0,0],\n// [0,0,0,0,0,0,0,1,1,0,0,0,0,0,0,0],\n// [0,0,0,0,0,0,0,1,1,0,0,0,0,0,0,0],\n// [0,0,0,0,0,0,0,1,1,0,0,0,0,0,0,0],\n// [1,1,1,1,1,1,1,1,1,1,1,1,1,1,1,1],\n// [1,1,1,1,1,1,1,1,1,1,1,1,1,1,1,1],\n// [0,1,1,1,1,1,1,1,1,1,1,1,1,1,1,0],\n// [0,0,0,1,1,1,1,1,1,1,1,1,1,0,0,0],\n// [0,0,0,1,1,1,1,1,1,1,1,1,1,0,0,0],\n// [0,0,0,0,1,1,1,1,1,1,1,1,0,0,0,0],\n// [0,0,0,0,1,1,1,1,1,1,1,1,0,0,0,0],\n// [0,0,0,0,0,1,1,1,1,1,1,0,0,0,0,0],\n// [0,0,0,0,1,1,1,1,1,1,1,1,0,0,0,0],\n// [0,0,0,0,1,1,1,1,1,1,1,1,0,0,0,0],\n// [0,0,0,0,1,1,1,1,1,1,1,1,0,0,0,0],\n// [0,0,0,0,1,1,1,1,1,1,1,1,0,0,0,0],\n// [0,0,0,0,1,1,1,1,1,1,1,1,0,0,0,0],\n// [0,0,0,0,1,1,1,1,1,1,1,1,0,0,0,0],\n// [0,0,0,0,1,1,1,1,1,1,1,1,0,0,0,0],\n// [0,0,0,0,1,1,1,1,1,1,1,1,0,0,0,0],\n// [0,0,0,0,1,1,1,1,1,1,1,1,0,0,0,0],\n// [0,0,0,0,1,1,1,1,1,1,1,1,0,0,0,0],\n// [0,0,0,0,1,1,1,1,1,1,1,1,0,0,0,0],\n// [0,0,0,0,1,1,1,1,1,1,1,1,0,0,0,0],\n// [0,0,0,0,1,1,1,1,1,1,1,1,0,0,0,0],\n// [0,0,0,0,1,1,1,1,1,1,1,1,0,0,0,0],\n// [0,0,0,0,1,1,1,1,1,1,1,1,0,0,0,0],\n// [0,0,0,0,1,1,1,1,1,1,1,1,0,0,0,0],\n// [0,0,0,0,1,1,1,1,1,1,1,1,0,0,0,0],\n// [0,0,0,0,1,1,1,1,1,1,1,1,0,0,0,0],\n// [0,0,0,0,1,1,1,1,1,1,1,1,0,0,0,0],\n// [0,0,0,0,1,1,1,1,1,1,1,1,0,0,0,0],\n// [0,0,0,0,1,1,1,1,1,1,1,1,0,0,0,0],\n// [0,0,0,0,1,1,1,1,1,1,1,1,0,0,0,0],\n// [0,0,0,0,1,1,1,1,1,1,1,1,0,0,0,0],\n// [0,0,0,0,1,1,1,1,1,1,1,1,0,0,0,0],\n// [0,0,0,0,1,1,1,1,1,1,1,1,0,0,0,0],\n// [0,0,0,0,0,1,1,1,1,1,1,0,0,0,0,0],\n// [0,0,0,0,0,1,1,1,1,1,1,0,0,0,0,0],\n// [0,0,0,0,0,1,1,1,1,1,1,0,0,0,0,0],\n// [0,0,0,0,0,0,1,1,1,1,0,0,0,0,0,0],\n// [0,0,0,0,0,0,1,1,1,1,0,0,0,0,0,0],\n// [0,0,0,0,0,0,0,1,1,0,0,0,0,0,0,0],\n// [0,0,0,0,0,0,0,1,1,0,0,0,0,0,0,0]]\nimport {ABDKMath64x64} from \"./ABDKMath64x64.sol\";\nimport {Base64} from \"./Base64.sol\";\nimport {Strings} from './Strings.sol';\n\ninterface IMetadata {\n    function tokenMetadata(\n        uint256 tokenId,\n        uint256 tokenNumber,\n        string memory imgURI\n    ) external view returns (string memory);\n\n    function name() external view returns (string memory);\n}\n\ncontract SwordMetadata is IMetadata {\n    struct MetadataStructure {\n        string name;\n        string description;\n        string createdBy;\n        string image;\n        MetadataAttribute[] attributes;\n    }\n\n    struct MetadataAttribute {\n        bool includeDisplayType;\n        bool includeTraitType;\n        bool isValueAString;\n        string displayType;\n        string traitType;\n        string value;\n    }\n\n    using Base64 for string;\n    using Strings for uint256;\n\n    address public owner;\n\n    constructor() {\n        owner = msg.sender;\n    }\n\n    function tokenMetadata(\n        uint256 tokenId,\n        uint256 tokenNumber,\n        string memory imgURI\n    ) external pure override returns (string memory) {\n        string memory base64Json = Base64.encode(\n            bytes(\n                string(\n                    abi.encodePacked(\n                        _getJson(\n                            tokenId,\n                            tokenNumber,\n                            imgURI\n                        )\n                    )\n                )\n            )\n        );\n        return\n            string(\n                abi.encodePacked(\"data:application/json;base64,\", base64Json)\n            );\n    }\n\n\n    function name() public pure returns (string memory) {\n        return \"Web3Sword\";\n    }\n\n    function description(uint256) public pure returns (string memory) {\n        return \"A fragment of Web3 Sword\";\n    }\n\n    function _getJson(\n        uint256 tokenId,\n        uint256 tokenNumber,\n        string memory imgURI\n    ) private pure returns (string memory) {\n        MetadataStructure memory metadata = MetadataStructure({\n            name: string(\n                abi.encodePacked(\n                    name(),\n                    \"(\",\n                    tokenNumber.toString(),\n                    \") #\",\n                    tokenId.toString()\n                )\n            ),\n            description: tokenNumber.toString(),\n            createdBy: \"Web3Art\",\n            image: imgURI,\n            attributes: _getJsonAttributes(\n                tokenId,\n                tokenNumber\n            )\n        });\n\n        return _generateMetadata(metadata);\n    }\n\n    function _getJsonAttributes(\n        uint256,\n        uint256 tokenNumber\n    ) private pure returns (MetadataAttribute[] memory) {\n        MetadataAttribute[]\n            memory metadataAttributes = new MetadataAttribute[](1);\n        metadataAttributes[0] = _getMetadataAttribute(\n            false,\n            true,\n            false,\n            \"number\",\n            \"NO.\",\n            tokenNumber.toString()\n        );\n        return metadataAttributes;\n    }\n\n    function _getMetadataAttribute(\n        bool includeDisplayType,\n        bool includeTraitType,\n        bool isValueAString,\n        string memory displayType,\n        string memory traitType,\n        string memory value\n    ) private pure returns (MetadataAttribute memory) {\n        MetadataAttribute memory attribute = MetadataAttribute({\n            includeDisplayType: includeDisplayType,\n            includeTraitType: includeTraitType,\n            isValueAString: isValueAString,\n            displayType: displayType,\n            traitType: traitType,\n            value: value\n        });\n\n        return attribute;\n    }\n\n    function _generateMetadata(MetadataStructure memory metadata)\n        private\n        pure\n        returns (string memory)\n    {\n        bytes memory byteString;\n\n        byteString = abi.encodePacked(byteString, _openJsonObject());\n\n        byteString = abi.encodePacked(\n            byteString,\n            _pushJsonPrimitiveStringAttribute(\"name\", metadata.name, true)\n        );\n\n        byteString = abi.encodePacked(\n            byteString,\n            _pushJsonPrimitiveStringAttribute(\n                \"description\",\n                metadata.description,\n                true\n            )\n        );\n\n        byteString = abi.encodePacked(\n            byteString,\n            _pushJsonPrimitiveStringAttribute(\n                \"created_by\",\n                metadata.createdBy,\n                true\n            )\n        );\n\n        byteString = abi.encodePacked(\n                byteString,\n                _pushJsonPrimitiveStringAttribute(\"image\", metadata.image, true)\n        );\n\n        byteString = abi.encodePacked(\n            byteString,\n            _pushJsonComplexAttribute(\n                \"attributes\",\n                _getAttributes(metadata.attributes),\n                false\n            )\n        );\n\n        byteString = abi.encodePacked(byteString, _closeJsonObject());\n\n        return string(byteString);\n    }\n\n    function _getAttributes(MetadataAttribute[] memory attributes)\n        private\n        pure\n        returns (string memory)\n    {\n        bytes memory byteString;\n\n        byteString = abi.encodePacked(byteString, _openJsonArray());\n\n        for (uint256 i = 0; i < attributes.length; i++) {\n            MetadataAttribute memory attribute = attributes[i];\n            byteString = abi.encodePacked(\n                byteString,\n                _pushJsonArrayElement(\n                    _getAttribute(attribute),\n                    i < (attributes.length - 1)\n                )\n            );\n        }\n\n        byteString = abi.encodePacked(byteString, _closeJsonArray());\n\n        return string(byteString);\n    }\n\n    function _getAttribute(MetadataAttribute memory attribute)\n        private\n        pure\n        returns (string memory)\n    {\n        bytes memory byteString;\n\n        byteString = abi.encodePacked(byteString, _openJsonObject());\n\n        if (attribute.includeDisplayType) {\n            byteString = abi.encodePacked(\n                byteString,\n                _pushJsonPrimitiveStringAttribute(\n                    \"display_type\",\n                    attribute.displayType,\n                    true\n                )\n            );\n        }\n\n        if (attribute.includeTraitType) {\n            byteString = abi.encodePacked(\n                byteString,\n                _pushJsonPrimitiveStringAttribute(\n                    \"trait_type\",\n                    attribute.traitType,\n                    true\n                )\n            );\n        }\n\n        if (attribute.isValueAString) {\n            byteString = abi.encodePacked(\n                byteString,\n                _pushJsonPrimitiveStringAttribute(\n                    \"value\",\n                    attribute.value,\n                    false\n                )\n            );\n        } else {\n            byteString = abi.encodePacked(\n                byteString,\n                _pushJsonPrimitiveNonStringAttribute(\n                    \"value\",\n                    attribute.value,\n                    false\n                )\n            );\n        }\n\n        byteString = abi.encodePacked(byteString, _closeJsonObject());\n\n        return string(byteString);\n    }\n\n\n    function _checkTag(string storage a, string memory b)\n        private\n        pure\n        returns (bool)\n    {\n        return (keccak256(abi.encodePacked((a))) ==\n            keccak256(abi.encodePacked((b))));\n    }\n\n    function _requireOnlyOwner() private view {\n        require(msg.sender == owner, \"You are not the owner\");\n    }\n\n    function _openJsonObject() private pure returns (string memory) {\n        return string(abi.encodePacked(\"{\"));\n    }\n\n    function _closeJsonObject() private pure returns (string memory) {\n        return string(abi.encodePacked(\"}\"));\n    }\n\n    function _openJsonArray() private pure returns (string memory) {\n        return string(abi.encodePacked(\"[\"));\n    }\n\n    function _closeJsonArray() private pure returns (string memory) {\n        return string(abi.encodePacked(\"]\"));\n    }\n\n    function _pushJsonPrimitiveStringAttribute(\n        string memory key,\n        string memory value,\n        bool insertComma\n    ) private pure returns (string memory) {\n        return\n            string(\n                abi.encodePacked(\n                    '\"',\n                    key,\n                    '\": \"',\n                    value,\n                    '\"',\n                    insertComma ? \",\" : \"\"\n                )\n            );\n    }\n\n    function _pushJsonPrimitiveNonStringAttribute(\n        string memory key,\n        string memory value,\n        bool insertComma\n    ) private pure returns (string memory) {\n        return\n            string(\n                abi.encodePacked('\"', key, '\": ', value, insertComma ? \",\" : \"\")\n            );\n    }\n\n    function _pushJsonComplexAttribute(\n        string memory key,\n        string memory value,\n        bool insertComma\n    ) private pure returns (string memory) {\n        return\n            string(\n                abi.encodePacked('\"', key, '\": ', value, insertComma ? \",\" : \"\")\n            );\n    }\n\n    function _pushJsonArrayElement(string memory value, bool insertComma)\n        private\n        pure\n        returns (string memory)\n    {\n        return string(abi.encodePacked(value, insertComma ? \",\" : \"\"));\n    }\n}\n",
  "sourcePath": "/Users/alberthuang/code/art-contracts/contracts/Web3SwordMetadata.sol",
  "compiler": {
    "name": "solc",
    "version": "0.8.9+commit.e5eed63a.Emscripten.clang"
  },
  "schemaVersion": "3.4.5",
  "updatedAt": "2022-03-14T11:57:42.752Z",
  "networkType": "ethereum",
  "devdoc": {
    "kind": "dev",
    "methods": {},
    "version": 1
  },
  "userdoc": {
    "kind": "user",
    "methods": {},
    "version": 1
  }
}