{
  "contractName": "Web3Sword",
  "abi": [
    {
      "anonymous": false,
      "inputs": [
        {
          "indexed": false,
          "internalType": "address",
          "name": "previousAdmin",
          "type": "address"
        },
        {
          "indexed": false,
          "internalType": "address",
          "name": "newAdmin",
          "type": "address"
        }
      ],
      "name": "AdminChanged",
      "type": "event"
    },
    {
      "anonymous": false,
      "inputs": [
        {
          "indexed": true,
          "internalType": "address",
          "name": "account",
          "type": "address"
        },
        {
          "indexed": true,
          "internalType": "address",
          "name": "operator",
          "type": "address"
        },
        {
          "indexed": false,
          "internalType": "bool",
          "name": "approved",
          "type": "bool"
        }
      ],
      "name": "ApprovalForAll",
      "type": "event"
    },
    {
      "anonymous": false,
      "inputs": [
        {
          "indexed": true,
          "internalType": "address",
          "name": "beacon",
          "type": "address"
        }
      ],
      "name": "BeaconUpgraded",
      "type": "event"
    },
    {
      "anonymous": false,
      "inputs": [
        {
          "indexed": true,
          "internalType": "address",
          "name": "buyer",
          "type": "address"
        },
        {
          "indexed": false,
          "internalType": "uint256",
          "name": "tokenId",
          "type": "uint256"
        },
        {
          "indexed": false,
          "internalType": "uint256",
          "name": "value",
          "type": "uint256"
        }
      ],
      "name": "BuySuccess",
      "type": "event"
    },
    {
      "anonymous": false,
      "inputs": [
        {
          "indexed": true,
          "internalType": "address",
          "name": "previousOwner",
          "type": "address"
        },
        {
          "indexed": true,
          "internalType": "address",
          "name": "newOwner",
          "type": "address"
        }
      ],
      "name": "OwnershipTransferred",
      "type": "event"
    },
    {
      "anonymous": false,
      "inputs": [
        {
          "indexed": true,
          "internalType": "address",
          "name": "claimer",
          "type": "address"
        },
        {
          "indexed": false,
          "internalType": "uint256",
          "name": "tokenId",
          "type": "uint256"
        },
        {
          "indexed": false,
          "internalType": "uint8",
          "name": "t",
          "type": "uint8"
        }
      ],
      "name": "SocialClaimSuccess",
      "type": "event"
    },
    {
      "anonymous": false,
      "inputs": [
        {
          "indexed": true,
          "internalType": "address",
          "name": "operator",
          "type": "address"
        },
        {
          "indexed": true,
          "internalType": "address",
          "name": "from",
          "type": "address"
        },
        {
          "indexed": true,
          "internalType": "address",
          "name": "to",
          "type": "address"
        },
        {
          "indexed": false,
          "internalType": "uint256[]",
          "name": "ids",
          "type": "uint256[]"
        },
        {
          "indexed": false,
          "internalType": "uint256[]",
          "name": "values",
          "type": "uint256[]"
        }
      ],
      "name": "TransferBatch",
      "type": "event"
    },
    {
      "anonymous": false,
      "inputs": [
        {
          "indexed": true,
          "internalType": "address",
          "name": "operator",
          "type": "address"
        },
        {
          "indexed": true,
          "internalType": "address",
          "name": "from",
          "type": "address"
        },
        {
          "indexed": true,
          "internalType": "address",
          "name": "to",
          "type": "address"
        },
        {
          "indexed": false,
          "internalType": "uint256",
          "name": "id",
          "type": "uint256"
        },
        {
          "indexed": false,
          "internalType": "uint256",
          "name": "value",
          "type": "uint256"
        }
      ],
      "name": "TransferSingle",
      "type": "event"
    },
    {
      "anonymous": false,
      "inputs": [
        {
          "indexed": false,
          "internalType": "string",
          "name": "value",
          "type": "string"
        },
        {
          "indexed": true,
          "internalType": "uint256",
          "name": "id",
          "type": "uint256"
        }
      ],
      "name": "URI",
      "type": "event"
    },
    {
      "anonymous": false,
      "inputs": [
        {
          "indexed": true,
          "internalType": "address",
          "name": "implementation",
          "type": "address"
        }
      ],
      "name": "Upgraded",
      "type": "event"
    },
    {
      "anonymous": false,
      "inputs": [
        {
          "indexed": true,
          "internalType": "address",
          "name": "",
          "type": "address"
        },
        {
          "indexed": false,
          "internalType": "uint256",
          "name": "value",
          "type": "uint256"
        }
      ],
      "name": "Withdrawal",
      "type": "event"
    },
    {
      "inputs": [
        {
          "internalType": "address",
          "name": "account",
          "type": "address"
        },
        {
          "internalType": "uint256",
          "name": "id",
          "type": "uint256"
        }
      ],
      "name": "balanceOf",
      "outputs": [
        {
          "internalType": "uint256",
          "name": "",
          "type": "uint256"
        }
      ],
      "stateMutability": "view",
      "type": "function"
    },
    {
      "inputs": [
        {
          "internalType": "address[]",
          "name": "accounts",
          "type": "address[]"
        },
        {
          "internalType": "uint256[]",
          "name": "ids",
          "type": "uint256[]"
        }
      ],
      "name": "balanceOfBatch",
      "outputs": [
        {
          "internalType": "uint256[]",
          "name": "",
          "type": "uint256[]"
        }
      ],
      "stateMutability": "view",
      "type": "function"
    },
    {
      "inputs": [
        {
          "internalType": "uint256",
          "name": "",
          "type": "uint256"
        }
      ],
      "name": "imgURLById",
      "outputs": [
        {
          "internalType": "string",
          "name": "",
          "type": "string"
        }
      ],
      "stateMutability": "view",
      "type": "function"
    },
    {
      "inputs": [
        {
          "internalType": "address",
          "name": "account",
          "type": "address"
        },
        {
          "internalType": "address",
          "name": "operator",
          "type": "address"
        }
      ],
      "name": "isApprovedForAll",
      "outputs": [
        {
          "internalType": "bool",
          "name": "",
          "type": "bool"
        }
      ],
      "stateMutability": "view",
      "type": "function"
    },
    {
      "inputs": [
        {
          "internalType": "uint256",
          "name": "",
          "type": "uint256"
        }
      ],
      "name": "numberById",
      "outputs": [
        {
          "internalType": "uint256",
          "name": "",
          "type": "uint256"
        }
      ],
      "stateMutability": "view",
      "type": "function"
    },
    {
      "inputs": [],
      "name": "owner",
      "outputs": [
        {
          "internalType": "address",
          "name": "",
          "type": "address"
        }
      ],
      "stateMutability": "view",
      "type": "function"
    },
    {
      "inputs": [],
      "name": "proxiableUUID",
      "outputs": [
        {
          "internalType": "bytes32",
          "name": "",
          "type": "bytes32"
        }
      ],
      "stateMutability": "view",
      "type": "function"
    },
    {
      "inputs": [],
      "name": "renounceOwnership",
      "outputs": [],
      "stateMutability": "nonpayable",
      "type": "function"
    },
    {
      "inputs": [
        {
          "internalType": "address",
          "name": "from",
          "type": "address"
        },
        {
          "internalType": "address",
          "name": "to",
          "type": "address"
        },
        {
          "internalType": "uint256[]",
          "name": "ids",
          "type": "uint256[]"
        },
        {
          "internalType": "uint256[]",
          "name": "amounts",
          "type": "uint256[]"
        },
        {
          "internalType": "bytes",
          "name": "data",
          "type": "bytes"
        }
      ],
      "name": "safeBatchTransferFrom",
      "outputs": [],
      "stateMutability": "nonpayable",
      "type": "function"
    },
    {
      "inputs": [
        {
          "internalType": "address",
          "name": "from",
          "type": "address"
        },
        {
          "internalType": "address",
          "name": "to",
          "type": "address"
        },
        {
          "internalType": "uint256",
          "name": "id",
          "type": "uint256"
        },
        {
          "internalType": "uint256",
          "name": "amount",
          "type": "uint256"
        },
        {
          "internalType": "bytes",
          "name": "data",
          "type": "bytes"
        }
      ],
      "name": "safeTransferFrom",
      "outputs": [],
      "stateMutability": "nonpayable",
      "type": "function"
    },
    {
      "inputs": [
        {
          "internalType": "address",
          "name": "operator",
          "type": "address"
        },
        {
          "internalType": "bool",
          "name": "approved",
          "type": "bool"
        }
      ],
      "name": "setApprovalForAll",
      "outputs": [],
      "stateMutability": "nonpayable",
      "type": "function"
    },
    {
      "inputs": [
        {
          "internalType": "bytes4",
          "name": "interfaceId",
          "type": "bytes4"
        }
      ],
      "name": "supportsInterface",
      "outputs": [
        {
          "internalType": "bool",
          "name": "",
          "type": "bool"
        }
      ],
      "stateMutability": "view",
      "type": "function"
    },
    {
      "inputs": [
        {
          "internalType": "uint256",
          "name": "",
          "type": "uint256"
        },
        {
          "internalType": "uint256",
          "name": "",
          "type": "uint256"
        }
      ],
      "name": "swordMatrix",
      "outputs": [
        {
          "internalType": "uint8",
          "name": "",
          "type": "uint8"
        }
      ],
      "stateMutability": "view",
      "type": "function"
    },
    {
      "inputs": [
        {
          "internalType": "address",
          "name": "newOwner",
          "type": "address"
        }
      ],
      "name": "transferOwnership",
      "outputs": [],
      "stateMutability": "nonpayable",
      "type": "function"
    },
    {
      "inputs": [
        {
          "internalType": "address",
          "name": "newImplementation",
          "type": "address"
        }
      ],
      "name": "upgradeTo",
      "outputs": [],
      "stateMutability": "nonpayable",
      "type": "function"
    },
    {
      "inputs": [
        {
          "internalType": "address",
          "name": "newImplementation",
          "type": "address"
        },
        {
          "internalType": "bytes",
          "name": "data",
          "type": "bytes"
        }
      ],
      "name": "upgradeToAndCall",
      "outputs": [],
      "stateMutability": "payable",
      "type": "function"
    },
    {
      "inputs": [
        {
          "internalType": "uint256",
          "name": "",
          "type": "uint256"
        }
      ],
      "name": "uri",
      "outputs": [
        {
          "internalType": "string",
          "name": "",
          "type": "string"
        }
      ],
      "stateMutability": "view",
      "type": "function"
    },
    {
      "inputs": [],
      "name": "initialize",
      "outputs": [],
      "stateMutability": "nonpayable",
      "type": "function"
    },
    {
      "inputs": [],
      "name": "buy",
      "outputs": [],
      "stateMutability": "payable",
      "type": "function"
    },
    {
      "inputs": [
        {
          "internalType": "uint256",
          "name": "value",
          "type": "uint256"
        }
      ],
      "name": "withdraw",
      "outputs": [],
      "stateMutability": "nonpayable",
      "type": "function"
    },
    {
      "inputs": [],
      "name": "name",
      "outputs": [
        {
          "internalType": "string",
          "name": "",
          "type": "string"
        }
      ],
      "stateMutability": "pure",
      "type": "function"
    },
    {
      "inputs": [],
      "name": "symbol",
      "outputs": [
        {
          "internalType": "string",
          "name": "",
          "type": "string"
        }
      ],
      "stateMutability": "pure",
      "type": "function"
    },
    {
      "inputs": [
        {
          "internalType": "uint256",
          "name": "id",
          "type": "uint256"
        }
      ],
      "name": "imgURL",
      "outputs": [
        {
          "internalType": "string",
          "name": "",
          "type": "string"
        }
      ],
      "stateMutability": "view",
      "type": "function"
    },
    {
      "inputs": [
        {
          "internalType": "uint256",
          "name": "",
          "type": "uint256"
        }
      ],
      "name": "description",
      "outputs": [
        {
          "internalType": "string",
          "name": "",
          "type": "string"
        }
      ],
      "stateMutability": "pure",
      "type": "function"
    }
  ],
  "bytecode": "0x60a06040523060805234801561001457600080fd5b506080516149bc61004c600039600081816107b4015281816107f4015281816109be015281816109fe0152610a9101526149bc6000f3fe60806040526004361061014a5760003560e01c8063715018a6116100b6578063b16b69ea1161006f578063b16b69ea146103c2578063b2460057146103e2578063e8a083b114610410578063e985e9c514610442578063f242432a1461048b578063f2fde38b146104ab57600080fd5b8063715018a6146103245780638129fc1c146103395780638da5cb5b1461034e57806395d89b4114610376578063a22cb465146103a2578063a6f2ae3a1461028d57600080fd5b80632e1a7d4d116101085780632e1a7d4d1461026d5780632eb2c2d61461028f5780633659cfe6146102af5780634e1273f4146102cf5780634f1ef286146102fc57806352d1902d1461030f57600080fd5b8062fdd58e1461014f57806301ffc9a71461018257806306fdde03146101b25780630e89341c146101ed578063269830811461020d5780632c5f13e01461022d575b600080fd5b34801561015b57600080fd5b5061016f61016a366004613f92565b6104cb565b6040519081526020015b60405180910390f35b34801561018e57600080fd5b506101a261019d366004613fd2565b610564565b6040519015158152602001610179565b3480156101be57600080fd5b5060408051808201909152600981526815d9588cd4dddbdc9960ba1b60208201525b6040516101799190614047565b3480156101f957600080fd5b506101e061020836600461405a565b6105b6565b34801561021957600080fd5b506101e061022836600461405a565b61064a565b34801561023957600080fd5b506101e061024836600461405a565b5060408051808201909152600a8152691dd9588cc81cdddbdc9960b21b602082015290565b34801561027957600080fd5b5061028d61028836600461405a565b610668565b005b34801561029b57600080fd5b5061028d6102aa3660046141bf565b610712565b3480156102bb57600080fd5b5061028d6102ca366004614269565b6107a9565b3480156102db57600080fd5b506102ef6102ea366004614284565b610889565b604051610179919061438a565b61028d61030a36600461439d565b6109b3565b34801561031b57600080fd5b5061016f610a84565b34801561033057600080fd5b5061028d610b38565b34801561034557600080fd5b5061028d610b6e565b34801561035a57600080fd5b506097546040516001600160a01b039091168152602001610179565b34801561038257600080fd5b5060408051808201909152600381526214d5d160ea1b60208201526101e0565b3480156103ae57600080fd5b5061028d6103bd3660046143e1565b613098565b3480156103ce57600080fd5b506101e06103dd36600461405a565b6130a3565b3480156103ee57600080fd5b5061016f6103fd36600461405a565b61012d6020526000908152604090205481565b34801561041c57600080fd5b5061043061042b36600461441d565b61313e565b60405160ff9091168152602001610179565b34801561044e57600080fd5b506101a261045d36600461443f565b6001600160a01b03918216600090815260666020908152604080832093909416825291909152205460ff1690565b34801561049757600080fd5b5061028d6104a6366004614472565b61318e565b3480156104b757600080fd5b5061028d6104c6366004614269565b613215565b60006001600160a01b03831661053c5760405162461bcd60e51b815260206004820152602b60248201527f455243313135353a2062616c616e636520717565727920666f7220746865207a60448201526a65726f206164647265737360a81b60648201526084015b60405180910390fd5b5060009081526065602090815260408083206001600160a01b03949094168352929052205490565b60006001600160e01b03198216636cdb3d1360e11b148061059557506001600160e01b031982166303a24d0760e21b145b806105b057506301ffc9a760e01b6001600160e01b03198316145b92915050565b6060606780546105c5906144d7565b80601f01602080910402602001604051908101604052809291908181526020018280546105f1906144d7565b801561063e5780601f106106135761010080835404028352916020019161063e565b820191906000526020600020905b81548152906001019060200180831161062157829003601f168201915b50505050509050919050565b600081815261012e602052604090208054606091906105c5906144d7565b6097546001600160a01b031633146106925760405162461bcd60e51b815260040161053390614512565b6000811161069f57600080fd5b478111156106ac57600080fd5b604051339082156108fc029083906000818181858888f193505050501580156106d9573d6000803e3d6000fd5b5060405181815233907f7fcf532c15f0a6db0bd6d0e038bea71d30d808c7d98cb3bf7268a95bf5081b659060200160405180910390a250565b6001600160a01b03851633148061072e575061072e853361045d565b6107955760405162461bcd60e51b815260206004820152603260248201527f455243313135353a207472616e736665722063616c6c6572206973206e6f74206044820152711bdddb995c881b9bdc88185c1c1c9bdd995960721b6064820152608401610533565b6107a285858585856132ad565b5050505050565b306001600160a01b037f00000000000000000000000000000000000000000000000000000000000000001614156107f25760405162461bcd60e51b815260040161053390614547565b7f00000000000000000000000000000000000000000000000000000000000000006001600160a01b031661083b600080516020614940833981519152546001600160a01b031690565b6001600160a01b0316146108615760405162461bcd60e51b815260040161053390614593565b61086a8161348d565b60408051600080825260208201909252610886918391906134b7565b50565b606081518351146108ee5760405162461bcd60e51b815260206004820152602960248201527f455243313135353a206163636f756e747320616e6420696473206c656e677468604482015268040dad2e6dac2e8c6d60bb1b6064820152608401610533565b6000835167ffffffffffffffff81111561090a5761090a614073565b604051908082528060200260200182016040528015610933578160200160208202803683370190505b50905060005b84518110156109ab5761097e858281518110610957576109576145df565b6020026020010151858381518110610971576109716145df565b60200260200101516104cb565b828281518110610990576109906145df565b60209081029190910101526109a48161460b565b9050610939565b509392505050565b306001600160a01b037f00000000000000000000000000000000000000000000000000000000000000001614156109fc5760405162461bcd60e51b815260040161053390614547565b7f00000000000000000000000000000000000000000000000000000000000000006001600160a01b0316610a45600080516020614940833981519152546001600160a01b031690565b6001600160a01b031614610a6b5760405162461bcd60e51b815260040161053390614593565b610a748261348d565b610a80828260016134b7565b5050565b6000306001600160a01b037f00000000000000000000000000000000000000000000000000000000000000001614610b245760405162461bcd60e51b815260206004820152603860248201527f555550535570677261646561626c653a206d757374206e6f742062652063616c60448201527f6c6564207468726f7567682064656c656761746563616c6c00000000000000006064820152608401610533565b506000805160206149408339815191525b90565b6097546001600160a01b03163314610b625760405162461bcd60e51b815260040161053390614512565b610b6c6000613636565b565b600054610100900460ff16610b895760005460ff1615610b8d565b303b155b610bf05760405162461bcd60e51b815260206004820152602e60248201527f496e697469616c697a61626c653a20636f6e747261637420697320616c72656160448201526d191e481a5b9a5d1a585b1a5e995960921b6064820152608401610533565b600054610100900460ff16158015610c12576000805461ffff19166101011790555b610c2a60405180602001604052806000815250613688565b610c326136b8565b610c3a6136e7565b61012f805460ff191690556040805161020081018252600080825260208201819052918101829052606081018290526080810182905260a0810182905260c08101829052600160e08201819052610100820181905261012082018390526101408201839052610160820183905261018082018390526101a082018390526101c082018390526101e0820183905261013080549182018155909252610cf09160008051602061492083398151915201906010613e47565b506040805161020081018252600080825260208201819052918101829052606081018290526080810182905260a0810182905260c08101829052600160e08201819052610100820181905261012082018390526101408201839052610160820183905261018082018390526101a082018390526101c082018390526101e0820183905261013080549182018155909252610d9c9160008051602061492083398151915201906010613e47565b506040805161020081018252600080825260208201819052918101829052606081018290526080810182905260a08101829052600160c0820181905260e08201819052610100820181905261012082018190526101408201839052610160820183905261018082018390526101a082018390526101c082018390526101e0820183905261013080549182018155909252610e489160008051602061492083398151915201906010613e47565b506040805161020081018252600080825260208201819052918101829052606081018290526080810182905260a08101829052600160c0820181905260e08201819052610100820181905261012082018190526101408201839052610160820183905261018082018390526101a082018390526101c082018390526101e0820183905261013080549182018155909252610ef49160008051602061492083398151915201906010613e47565b506040805161020081018252600080825260208201819052918101829052606081018290526080810182905260a0810182905260c08101829052600160e08201819052610100820181905261012082018390526101408201839052610160820183905261018082018390526101a082018390526101c082018390526101e0820183905261013080549182018155909252610fa09160008051602061492083398151915201906010613e47565b506040805161020081018252600080825260208201819052918101829052606081018290526080810182905260a0810182905260c08101829052600160e08201819052610100820181905261012082018390526101408201839052610160820183905261018082018390526101a082018390526101c082018390526101e082018390526101308054918201815590925261104c9160008051602061492083398151915201906010613e47565b506040805161020081018252600080825260208201819052918101829052606081018290526080810182905260a0810182905260c08101829052600160e08201819052610100820181905261012082018390526101408201839052610160820183905261018082018390526101a082018390526101c082018390526101e08201839052610130805491820181559092526110f89160008051602061492083398151915201906010613e47565b506040805161020081018252600080825260208201819052918101829052606081018290526080810182905260a0810182905260c08101829052600160e08201819052610100820181905261012082018390526101408201839052610160820183905261018082018390526101a082018390526101c082018390526101e08201839052610130805491820181559092526111a49160008051602061492083398151915201906010613e47565b506040805161020081018252600080825260208201819052918101829052606081018290526080810182905260a0810182905260c08101829052600160e08201819052610100820181905261012082018390526101408201839052610160820183905261018082018390526101a082018390526101c082018390526101e08201839052610130805491820181559092526112509160008051602061492083398151915201906010613e47565b506040805161020081018252600080825260208201819052918101829052606081018290526080810182905260a0810182905260c08101829052600160e08201819052610100820181905261012082018390526101408201839052610160820183905261018082018390526101a082018390526101c082018390526101e08201839052610130805491820181559092526112fc9160008051602061492083398151915201906010613e47565b506040805161020081018252600080825260208201819052918101829052606081018290526080810182905260a0810182905260c08101829052600160e08201819052610100820181905261012082018390526101408201839052610160820183905261018082018390526101a082018390526101c082018390526101e08201839052610130805491820181559092526113a89160008051602061492083398151915201906010613e47565b506040805161020081018252600080825260208201819052918101829052606081018290526080810182905260a0810182905260c08101829052600160e08201819052610100820181905261012082018390526101408201839052610160820183905261018082018390526101a082018390526101c082018390526101e08201839052610130805491820181559092526114549160008051602061492083398151915201906010613e47565b506040805161020081018252600080825260208201819052918101829052606081018290526080810182905260a0810182905260c08101829052600660e0820181905261010082015261012081018290526101408101829052610160810182905261018081018290526101a081018290526101c081018290526101e08101829052610130805460018101825592526114fe9160008051602061492083398151915201906010613e47565b506040805161020081018252600080825260208201819052918101829052606081018290526080810182905260a0810182905260c08101829052600660e0820181905261010082015261012081018290526101408101829052610160810182905261018081018290526101a081018290526101c081018290526101e08101829052610130805460018101825592526115a89160008051602061492083398151915201906010613e47565b506040805161020081018252600180825260208201819052918101829052606081018290526080810182905260a0810182905260c0810182905260e08101829052610100810182905261012081018290526101408101829052610160810182905261018081018290526101a081018290526101c081018290526101e08101829052610130805492830181556000526116529160008051602061492083398151915201906010613e47565b506040805161020081018252600180825260208201819052918101829052606081018290526080810182905260a0810182905260c0810182905260e08101829052610100810182905261012081018290526101408101829052610160810182905261018081018290526101a081018290526101c081018290526101e08101829052610130805492830181556000526116fc9160008051602061492083398151915201906010613e47565b50604080516102008101825260008082526001602083018190529282018390526060820183905260808201839052600460a0830181905260c0830181905260e0830181905261010083018190526101208301819052610140830152610160820183905261018082018390526101a082018390526101c082018390526101e082018190526101308054938401815590526117a79160008051602061492083398151915201906010613e47565b50604080516102008101825260008082526020820181905291810182905260016060820181905260808201819052600460a0830181905260c0830181905260e0830181905261010083018190526101208301819052610140830152610160820181905261018082018190526101a082018390526101c082018390526101e08201839052610130805491820181559092526118539160008051602061492083398151915201906010613e47565b5060408051610200810182526000808252602082018190529181018290526001606082018190526080820181905260a0820181905260c0820181905260e08201819052610100820181905261012082018190526101408201819052610160820181905261018082018190526101a082018390526101c082018390526101e08201839052610130805491820181559092526118ff9160008051602061492083398151915201906010613e47565b50604080516102008101825260008082526020820181905291810182905260608101829052600160808201819052600660a0830181905260c0830181905260e0830182905261010083018290526101208301819052610140830152610160820181905261018082018390526101a082018390526101c082018390526101e08201839052610130805491820181559092526119ab9160008051602061492083398151915201906010613e47565b50604080516102008101825260008082526020820181905291810182905260608101829052600160808201819052600360a0830181905260c0830181905260e0830181905261010083018190526101208301819052610140830152610160820181905261018082018390526101a082018390526101c082018390526101e0820183905261013080549182018155909252611a579160008051602061492083398151915201906010613e47565b5060408051610200810182526000808252602082018190529181018290526060810182905260808101829052600160a0820181905260c0820181905260e08201819052600361010083015261012082018190526101408201819052610160820183905261018082018390526101a082018390526101c082018390526101e0820183905261013080549182018155909252611b039160008051602061492083398151915201906010613e47565b5060408051610200810182526000808252602082018190529181018290526060810182905260016080820181905260a0820181905260c0820181905260e08201819052610100820181905261012082018190526101408201819052610160820181905261018082018390526101a082018390526101c082018390526101e0820183905261013080549182018155909252611baf9160008051602061492083398151915201906010613e47565b5060408051610200810182526000808252602082018190529181018290526060810182905260046080820181905260a0820181905260c0820181905260e08201526006610100820181905261012082015260016101408201819052610160820181905261018082018390526101a082018390526101c082018390526101e0820183905261013080549182018155909252611c5b9160008051602061492083398151915201906010613e47565b5060408051610200810182526000808252602082018190529181018290526060810182905260046080820181905260a0820181905260c0820181905260e08201526006610100820181905261012082015260016101408201819052610160820181905261018082018390526101a082018390526101c082018390526101e0820183905261013080549182018155909252611d079160008051602061492083398151915201906010613e47565b5060408051610200810182526000808252602082018190529181018290526060810182905260046080820181905260a0820181905260c0820181905260e08201819052610100820181905261012082015260016101408201819052610160820181905261018082018390526101a082018390526101c082018390526101e0820183905261013080549182018155909252611db39160008051602061492083398151915201906010613e47565b5060408051610200810182526000808252602082018190529181018290526060810182905260046080820181905260a0820181905260c0820181905260e08201819052610100820181905261012082015260016101408201819052610160820181905261018082018390526101a082018390526101c082018390526101e0820183905261013080549182018155909252611e5f9160008051602061492083398151915201906010613e47565b5060408051610200810182526000808252602082018190529181018290526060810182905260016080820181905260a08201819052600660c0830181905260e0830152600561010083018190526101208301819052610140830152610160820181905261018082018390526101a082018390526101c082018390526101e0820183905261013080549182018155909252611f0b9160008051602061492083398151915201906010613e47565b5060408051610200810182526000808252602082018190529181018290526060810182905260016080820181905260a08201819052600660c0830181905260e0830152600561010083018190526101208301819052610140830152610160820181905261018082018390526101a082018390526101c082018390526101e0820183905261013080549182018155909252611fb79160008051602061492083398151915201906010613e47565b5060408051610200810182526000808252602082018190529181018290526060810182905260016080820181905260a08201819052600460c0830181905260e0830152600561010083018190526101208301819052610140830152610160820181905261018082018390526101a082018390526101c082018390526101e08201839052610130805491820181559092526120639160008051602061492083398151915201906010613e47565b5060408051610200810182526000808252602082018190529181018290526060810182905260016080820181905260a08201819052600460c0830181905260e0830152600561010083018190526101208301819052610140830152610160820181905261018082018390526101a082018390526101c082018390526101e082018390526101308054918201815590925261210f9160008051602061492083398151915201906010613e47565b50604080516102008101825260008082526020820181905291810182905260608101829052600160808201819052600560a0830181905260c0830181905260e0830152600661010083018190526101208301526101408201819052610160820181905261018082018390526101a082018390526101c082018390526101e08201839052610130805491820181559092526121bb9160008051602061492083398151915201906010613e47565b5060408051610200810182526000808252602082018190529181018290526060810182905260016080820181905260a08201819052600560c0830181905260e0830152600661010083018190526101208301526101408201819052610160820181905261018082018390526101a082018390526101c082018390526101e08201839052610130805491820181559092526122679160008051602061492083398151915201906010613e47565b5060408051610200810182526000808252602082018190529181018290526060810182905260016080820181905260a08201819052600560c0830181905260e0830152600461010083018190526101208301526101408201819052610160820181905261018082018390526101a082018390526101c082018390526101e08201839052610130805491820181559092526123139160008051602061492083398151915201906010613e47565b5060408051610200810182526000808252602082018190529181018290526060810182905260016080820181905260a08201819052600560c0830181905260e0830152600461010083018190526101208301526101408201819052610160820181905261018082018390526101a082018390526101c082018390526101e08201839052610130805491820181559092526123bf9160008051602061492083398151915201906010613e47565b5060408051610200810182526000808252602082018190529181018290526060810182905260016080820181905260a08201819052600660c0830181905260e0830152600461010083018190526101208301819052610140830181905261016083015261018082018390526101a082018390526101c082018390526101e082018390526101308054918201815590925261246b9160008051602061492083398151915201906010613e47565b5060408051610200810182526000808252602082018190529181018290526060810182905260016080820181905260a08201819052600660c0830181905260e0830152600461010083018190526101208301819052610140830181905261016083015261018082018390526101a082018390526101c082018390526101e08201839052610130805491820181559092526125179160008051602061492083398151915201906010613e47565b5060408051610200810182526000808252602082018190529181018290526060810182905260016080820181905260a08201819052600460c0830181905260e0830181905261010083018190526101208301819052610140830181905261016083015261018082018390526101a082018390526101c082018390526101e08201839052610130805491820181559092526125c39160008051602061492083398151915201906010613e47565b5060408051610200810182526000808252602082018190529181018290526060810182905260016080820181905260a08201819052600460c0830181905260e0830181905261010083018190526101208301819052610140830181905261016083015261018082018390526101a082018390526101c082018390526101e082018390526101308054918201815590925261266f9160008051602061492083398151915201906010613e47565b5060408051610200810182526000808252602082018190529181018290526060810182905260016080820181905260a0820181905260c0820181905260e08201819052600661010083018190526101208301526101408201819052610160820181905261018082018390526101a082018390526101c082018390526101e082018390526101308054918201815590925261271b9160008051602061492083398151915201906010613e47565b5060408051610200810182526000808252602082018190529181018290526060810182905260016080820181905260a0820181905260c0820181905260e08201819052600661010083018190526101208301526101408201819052610160820181905261018082018390526101a082018390526101c082018390526101e08201839052610130805491820181559092526127c79160008051602061492083398151915201906010613e47565b50604080516102008101825260008082526020820181905291810182905260608101829052600160808201819052600260a0830181905260c0830181905260e0830181905261010083018190526101208301819052610140830152610160820181905261018082018390526101a082018390526101c082018390526101e08201839052610130805491820181559092526128739160008051602061492083398151915201906010613e47565b50604080516102008101825260008082526020820181905291810182905260608101829052600160808201819052600260a0830181905260c0830181905260e0830181905261010083018190526101208301819052610140830152610160820181905261018082018390526101a082018390526101c082018390526101e082018390526101308054918201815590925261291f9160008051602061492083398151915201906010613e47565b5060408051610200810182526000808252602082018190529181018290526060810182905260016080820181905260a08201819052600660c0830181905260e0830152600261010083015261012082018190526101408201819052610160820181905261018082018390526101a082018390526101c082018390526101e08201839052610130805491820181559092526129cb9160008051602061492083398151915201906010613e47565b5060408051610200810182526000808252602082018190529181018290526060810182905260016080820181905260a08201819052600660c0830181905260e0830152600261010083015261012082018190526101408201819052610160820181905261018082018390526101a082018390526101c082018390526101e0820183905261013080549182018155909252612a779160008051602061492083398151915201906010613e47565b5060408051610200810182526000808252602082018190529181018290526060810182905260016080820181905260a0820181905260c08201819052600460e0830181905261010083015261012082018190526101408201819052610160820181905261018082018390526101a082018390526101c082018390526101e0820183905261013080549182018155909252612b239160008051602061492083398151915201906010613e47565b5060408051610200810182526000808252602082018190529181018290526060810182905260016080820181905260a0820181905260c08201819052600460e0830152600661010083015261012082018190526101408201819052610160820181905261018082018390526101a082018390526101c082018390526101e0820183905261013080549182018155909252612bcf9160008051602061492083398151915201906010613e47565b5060408051610200810182526000808252602082018190529181018290526060810182905260808101829052600160a0820181905260c08201819052600660e0830181905261010083015261012082018190526101408201819052610160820183905261018082018390526101a082018390526101c082018390526101e0820183905261013080549182018155909252612c7b9160008051602061492083398151915201906010613e47565b5060408051610200810182526000808252602082018190529181018290526060810182905260808101829052600160a0820181905260c0820181905260e08201819052610100820181905261012082018190526101408201819052610160820183905261018082018390526101a082018390526101c082018390526101e0820183905261013080549182018155909252612d279160008051602061492083398151915201906010613e47565b5060408051610200810182526000808252602082018190529181018290526060810182905260808101829052600160a0820181905260c0820181905260e08201819052610100820181905261012082018190526101408201819052610160820183905261018082018390526101a082018390526101c082018390526101e0820183905261013080549182018155909252612dd39160008051602061492083398151915201906010613e47565b506040805161020081018252600080825260208201819052918101829052606081018290526080810182905260a08101829052600160c0820181905260e08201819052610100820181905261012082018190526101408201839052610160820183905261018082018390526101a082018390526101c082018390526101e0820183905261013080549182018155909252612e7f9160008051602061492083398151915201906010613e47565b506040805161020081018252600080825260208201819052918101829052606081018290526080810182905260a08101829052600160c0820181905260e08201819052610100820181905261012082018190526101408201839052610160820183905261018082018390526101a082018390526101c082018390526101e0820183905261013080549182018155909252612f2b9160008051602061492083398151915201906010613e47565b506040805161020081018252600080825260208201819052918101829052606081018290526080810182905260a0810182905260c08101829052600160e08201819052610100820181905261012082018390526101408201839052610160820183905261018082018390526101a082018390526101c082018390526101e0820183905261013080549182018155909252612fd79160008051602061492083398151915201906010613e47565b506040805161020081018252600080825260208201819052918101829052606081018290526080810182905260a0810182905260c08101829052600160e08201819052610100820181905261012082018390526101408201839052610160820183905261018082018390526101a082018390526101c082018390526101e08201839052610130805491820181559092526130839160008051602061492083398151915201906010613e47565b508015610886576000805461ff001916905550565b610a8033838361370e565b61012e60205260009081526040902080546130bd906144d7565b80601f01602080910402602001604051908101604052809291908181526020018280546130e9906144d7565b80156131365780601f1061310b57610100808354040283529160200191613136565b820191906000526020600020905b81548152906001019060200180831161311957829003601f168201915b505050505081565b610130828154811061314f57600080fd5b90600052602060002001818154811061316757600080fd5b9060005260206000209060209182820401919006915091509054906101000a900460ff1681565b6001600160a01b0385163314806131aa57506131aa853361045d565b6132085760405162461bcd60e51b815260206004820152602960248201527f455243313135353a2063616c6c6572206973206e6f74206f776e6572206e6f7260448201526808185c1c1c9bdd995960ba1b6064820152608401610533565b6107a285858585856137ef565b6097546001600160a01b0316331461323f5760405162461bcd60e51b815260040161053390614512565b6001600160a01b0381166132a45760405162461bcd60e51b815260206004820152602660248201527f4f776e61626c653a206e6577206f776e657220697320746865207a65726f206160448201526564647265737360d01b6064820152608401610533565b61088681613636565b815183511461330f5760405162461bcd60e51b815260206004820152602860248201527f455243313135353a2069647320616e6420616d6f756e7473206c656e677468206044820152670dad2e6dac2e8c6d60c31b6064820152608401610533565b6001600160a01b0384166133355760405162461bcd60e51b815260040161053390614626565b3360005b845181101561341f576000858281518110613356576133566145df565b602002602001015190506000858381518110613374576133746145df565b60209081029190910181015160008481526065835260408082206001600160a01b038e1683529093529190912054909150818110156133c55760405162461bcd60e51b81526004016105339061466b565b60008381526065602090815260408083206001600160a01b038e8116855292528083208585039055908b168252812080548492906134049084906146b5565b92505081905550505050806134189061460b565b9050613339565b50846001600160a01b0316866001600160a01b0316826001600160a01b03167f4a39dc06d4c0dbc64b70af90fd698a233a518aa5d07e595d983b8c0526c8f7fb878760405161346f9291906146cd565b60405180910390a4613485818787878787613919565b505050505050565b6097546001600160a01b031633146108865760405162461bcd60e51b815260040161053390614512565b7f4910fdfa16fed3260ed0e7147f7cc6da11a60208b5b9406d12a635614ffd91435460ff16156134ef576134ea83613a84565b505050565b826001600160a01b03166352d1902d6040518163ffffffff1660e01b815260040160206040518083038186803b15801561352857600080fd5b505afa925050508015613558575060408051601f3d908101601f19168201909252613555918101906146f2565b60015b6135bb5760405162461bcd60e51b815260206004820152602e60248201527f45524331393637557067726164653a206e657720696d706c656d656e7461746960448201526d6f6e206973206e6f74205555505360901b6064820152608401610533565b600080516020614940833981519152811461362a5760405162461bcd60e51b815260206004820152602960248201527f45524331393637557067726164653a20756e737570706f727465642070726f786044820152681a58589b195555525160ba1b6064820152608401610533565b506134ea838383613b20565b609780546001600160a01b038381166001600160a01b0319831681179093556040519116919082907f8be0079c531659141344cd1fd0a4f28419497f9722a3daafe3b4186f6b6457e090600090a35050565b600054610100900460ff166136af5760405162461bcd60e51b81526004016105339061470b565b61088681613b4b565b600054610100900460ff166136df5760405162461bcd60e51b81526004016105339061470b565b610b6c613b7b565b600054610100900460ff16610b6c5760405162461bcd60e51b81526004016105339061470b565b816001600160a01b0316836001600160a01b031614156137825760405162461bcd60e51b815260206004820152602960248201527f455243313135353a2073657474696e6720617070726f76616c20737461747573604482015268103337b91039b2b63360b91b6064820152608401610533565b6001600160a01b03838116600081815260666020908152604080832094871680845294825291829020805460ff191686151590811790915591519182527f17307eab39ab6107e8899845ad3d59bd9653f200f220920489ca2b5937696c31910160405180910390a3505050565b6001600160a01b0384166138155760405162461bcd60e51b815260040161053390614626565b3361382e81878761382588613bab565b6107a288613bab565b60008481526065602090815260408083206001600160a01b038a168452909152902054838110156138715760405162461bcd60e51b81526004016105339061466b565b60008581526065602090815260408083206001600160a01b038b81168552925280832087850390559088168252812080548692906138b09084906146b5565b909155505060408051868152602081018690526001600160a01b03808916928a821692918616917fc3d58168c5ae7397731d063d5bbf3d657854427343f4c083240f7aacaa2d0f62910160405180910390a4613910828888888888613bf6565b50505050505050565b6001600160a01b0384163b156134855760405163bc197c8160e01b81526001600160a01b0385169063bc197c819061395d9089908990889088908890600401614756565b602060405180830381600087803b15801561397757600080fd5b505af19250505080156139a7575060408051601f3d908101601f191682019092526139a4918101906147b4565b60015b613a54576139b36147d1565b806308c379a014156139ed57506139c86147ec565b806139d357506139ef565b8060405162461bcd60e51b81526004016105339190614047565b505b60405162461bcd60e51b815260206004820152603460248201527f455243313135353a207472616e7366657220746f206e6f6e20455243313135356044820152732932b1b2b4bb32b91034b6b83632b6b2b73a32b960611b6064820152608401610533565b6001600160e01b0319811663bc197c8160e01b146139105760405162461bcd60e51b815260040161053390614876565b6001600160a01b0381163b613af15760405162461bcd60e51b815260206004820152602d60248201527f455243313936373a206e657720696d706c656d656e746174696f6e206973206e60448201526c1bdd08184818dbdb9d1c9858dd609a1b6064820152608401610533565b60008051602061494083398151915280546001600160a01b0319166001600160a01b0392909216919091179055565b613b2983613cc0565b600082511180613b365750805b156134ea57613b458383613d00565b50505050565b600054610100900460ff16613b725760405162461bcd60e51b81526004016105339061470b565b61088681613df4565b600054610100900460ff16613ba25760405162461bcd60e51b81526004016105339061470b565b610b6c33613636565b60408051600180825281830190925260609160009190602080830190803683370190505090508281600081518110613be557613be56145df565b602090810291909101015292915050565b6001600160a01b0384163b156134855760405163f23a6e6160e01b81526001600160a01b0385169063f23a6e6190613c3a90899089908890889088906004016148be565b602060405180830381600087803b158015613c5457600080fd5b505af1925050508015613c84575060408051601f3d908101601f19168201909252613c81918101906147b4565b60015b613c90576139b36147d1565b6001600160e01b0319811663f23a6e6160e01b146139105760405162461bcd60e51b815260040161053390614876565b613cc981613a84565b6040516001600160a01b038216907fbc7cd75a20ee27fd9adebab32041f755214dbc6bffa90cc0225b39da2e5c2d3b90600090a250565b60606001600160a01b0383163b613d685760405162461bcd60e51b815260206004820152602660248201527f416464726573733a2064656c65676174652063616c6c20746f206e6f6e2d636f6044820152651b9d1c9858dd60d21b6064820152608401610533565b600080846001600160a01b031684604051613d839190614903565b600060405180830381855af49150503d8060008114613dbe576040519150601f19603f3d011682016040523d82523d6000602084013e613dc3565b606091505b5091509150613deb828260405180606001604052806027815260200161496060279139613e07565b95945050505050565b8051610a80906067906020840190613eed565b60608315613e16575081613e40565b825115613e265782518084602001fd5b8160405162461bcd60e51b81526004016105339190614047565b9392505050565b82805482825590600052602060002090601f01602090048101928215613edd5791602002820160005b83821115613eae57835183826101000a81548160ff021916908360ff1602179055509260200192600101602081600001049283019260010302613e70565b8015613edb5782816101000a81549060ff0219169055600101602081600001049283019260010302613eae565b505b50613ee9929150613f61565b5090565b828054613ef9906144d7565b90600052602060002090601f016020900481019282613f1b5760008555613edd565b82601f10613f3457805160ff1916838001178555613edd565b82800160010185558215613edd579182015b82811115613edd578251825591602001919060010190613f46565b5b80821115613ee95760008155600101613f62565b80356001600160a01b0381168114613f8d57600080fd5b919050565b60008060408385031215613fa557600080fd5b613fae83613f76565b946020939093013593505050565b6001600160e01b03198116811461088657600080fd5b600060208284031215613fe457600080fd5b8135613e4081613fbc565b60005b8381101561400a578181015183820152602001613ff2565b83811115613b455750506000910152565b60008151808452614033816020860160208601613fef565b601f01601f19169290920160200192915050565b602081526000613e40602083018461401b565b60006020828403121561406c57600080fd5b5035919050565b634e487b7160e01b600052604160045260246000fd5b601f8201601f1916810167ffffffffffffffff811182821017156140af576140af614073565b6040525050565b600067ffffffffffffffff8211156140d0576140d0614073565b5060051b60200190565b600082601f8301126140eb57600080fd5b813560206140f8826140b6565b6040516141058282614089565b83815260059390931b850182019282810191508684111561412557600080fd5b8286015b848110156141405780358352918301918301614129565b509695505050505050565b600082601f83011261415c57600080fd5b813567ffffffffffffffff81111561417657614176614073565b60405161418d601f8301601f191660200182614089565b8181528460208386010111156141a257600080fd5b816020850160208301376000918101602001919091529392505050565b600080600080600060a086880312156141d757600080fd5b6141e086613f76565b94506141ee60208701613f76565b9350604086013567ffffffffffffffff8082111561420b57600080fd5b61421789838a016140da565b9450606088013591508082111561422d57600080fd5b61423989838a016140da565b9350608088013591508082111561424f57600080fd5b5061425c8882890161414b565b9150509295509295909350565b60006020828403121561427b57600080fd5b613e4082613f76565b6000806040838503121561429757600080fd5b823567ffffffffffffffff808211156142af57600080fd5b818501915085601f8301126142c357600080fd5b813560206142d0826140b6565b6040516142dd8282614089565b83815260059390931b85018201928281019150898411156142fd57600080fd5b948201945b838610156143225761431386613f76565b82529482019490820190614302565b9650508601359250508082111561433857600080fd5b50614345858286016140da565b9150509250929050565b600081518084526020808501945080840160005b8381101561437f57815187529582019590820190600101614363565b509495945050505050565b602081526000613e40602083018461434f565b600080604083850312156143b057600080fd5b6143b983613f76565b9150602083013567ffffffffffffffff8111156143d557600080fd5b6143458582860161414b565b600080604083850312156143f457600080fd5b6143fd83613f76565b91506020830135801515811461441257600080fd5b809150509250929050565b6000806040838503121561443057600080fd5b50508035926020909101359150565b6000806040838503121561445257600080fd5b61445b83613f76565b915061446960208401613f76565b90509250929050565b600080600080600060a0868803121561448a57600080fd5b61449386613f76565b94506144a160208701613f76565b93506040860135925060608601359150608086013567ffffffffffffffff8111156144cb57600080fd5b61425c8882890161414b565b600181811c908216806144eb57607f821691505b6020821081141561450c57634e487b7160e01b600052602260045260246000fd5b50919050565b6020808252818101527f4f776e61626c653a2063616c6c6572206973206e6f7420746865206f776e6572604082015260600190565b6020808252602c908201527f46756e6374696f6e206d7573742062652063616c6c6564207468726f7567682060408201526b19195b1959d85d1958d85b1b60a21b606082015260800190565b6020808252602c908201527f46756e6374696f6e206d7573742062652063616c6c6564207468726f7567682060408201526b6163746976652070726f787960a01b606082015260800190565b634e487b7160e01b600052603260045260246000fd5b634e487b7160e01b600052601160045260246000fd5b600060001982141561461f5761461f6145f5565b5060010190565b60208082526025908201527f455243313135353a207472616e7366657220746f20746865207a65726f206164604082015264647265737360d81b606082015260800190565b6020808252602a908201527f455243313135353a20696e73756666696369656e742062616c616e636520666f60408201526939103a3930b739b332b960b11b606082015260800190565b600082198211156146c8576146c86145f5565b500190565b6040815260006146e0604083018561434f565b8281036020840152613deb818561434f565b60006020828403121561470457600080fd5b5051919050565b6020808252602b908201527f496e697469616c697a61626c653a20636f6e7472616374206973206e6f74206960408201526a6e697469616c697a696e6760a81b606082015260800190565b6001600160a01b0386811682528516602082015260a0604082018190526000906147829083018661434f565b8281036060840152614794818661434f565b905082810360808401526147a8818561401b565b98975050505050505050565b6000602082840312156147c657600080fd5b8151613e4081613fbc565b600060033d1115610b355760046000803e5060005160e01c90565b600060443d10156147fa5790565b6040516003193d81016004833e81513d67ffffffffffffffff816024840111818411171561482a57505050505090565b82850191508151818111156148425750505050505090565b843d870101602082850101111561485c5750505050505090565b61486b60208286010187614089565b509095945050505050565b60208082526028908201527f455243313135353a204552433131353552656365697665722072656a656374656040820152676420746f6b656e7360c01b606082015260800190565b6001600160a01b03868116825285166020820152604081018490526060810183905260a0608082018190526000906148f89083018461401b565b979650505050505050565b60008251614915818460208701613fef565b919091019291505056fe2f605e086faac1d93117bbfbc18835d434e9405fadc1ca66faf4b864746daf34360894a13ba1a3210667c828492db98dca3e2076cc3735a920a3ca505d382bbc416464726573733a206c6f772d6c6576656c2064656c65676174652063616c6c206661696c6564a2646970667358221220115c3cda11647aa29c5f892c4147113ce74e0c73ef19b1dbe64a1b21e89d519d64736f6c63430008090033",
  "immutableReferences": {
    "617": [
      {
        "length": 32,
        "start": 1972
      },
      {
        "length": 32,
        "start": 2036
      },
      {
        "length": 32,
        "start": 2494
      },
      {
        "length": 32,
        "start": 2558
      },
      {
        "length": 32,
        "start": 2705
      }
    ]
  },
  "source": "// SPDX-License-Identifier: MIT\npragma solidity ^0.8.9;\n\nimport \"@openzeppelin/contracts-upgradeable/token/ERC1155/ERC1155Upgradeable.sol\";\nimport \"@openzeppelin/contracts-upgradeable/access/OwnableUpgradeable.sol\";\nimport \"@openzeppelin/contracts-upgradeable/proxy/utils/Initializable.sol\";\nimport \"@openzeppelin/contracts-upgradeable/proxy/utils/UUPSUpgradeable.sol\";\nimport \"@openzeppelin/contracts-upgradeable/token/ERC1155/extensions/ERC1155SupplyUpgradeable.sol\";\n\n// [\n// [0,0,0,0,0,0,0,1,1,0,0,0,0,0,0,0],\n// [0,0,0,0,0,0,0,1,1,0,0,0,0,0,0,0],\n// [0,0,0,0,0,0,1,1,1,1,0,0,0,0,0,0],\n// [0,0,0,0,0,0,1,1,1,1,0,0,0,0,0,0],\n// [0,0,0,0,0,0,0,1,1,0,0,0,0,0,0,0],\n// [0,0,0,0,0,0,0,1,1,0,0,0,0,0,0,0],\n// [0,0,0,0,0,0,0,1,1,0,0,0,0,0,0,0],\n// [0,0,0,0,0,0,0,1,1,0,0,0,0,0,0,0],\n// [0,0,0,0,0,0,0,1,1,0,0,0,0,0,0,0],\n// [0,0,0,0,0,0,0,1,1,0,0,0,0,0,0,0],\n// [0,0,0,0,0,0,0,1,1,0,0,0,0,0,0,0],\n// [0,0,0,0,0,0,0,1,1,0,0,0,0,0,0,0],\n// [0,0,0,0,0,0,0,1,1,0,0,0,0,0,0,0],\n// [0,0,0,0,0,0,0,1,1,0,0,0,0,0,0,0],\n// [1,1,1,1,1,1,1,1,1,1,1,1,1,1,1,1],\n// [1,1,1,1,1,1,1,1,1,1,1,1,1,1,1,1],\n// [0,1,1,1,1,1,1,1,1,1,1,1,1,1,1,0],\n// [0,0,0,1,1,1,1,1,1,1,1,1,1,0,0,0],\n// [0,0,0,1,1,1,1,1,1,1,1,1,1,0,0,0],\n// [0,0,0,0,1,1,1,1,1,1,1,1,0,0,0,0],\n// [0,0,0,0,1,1,1,1,1,1,1,1,0,0,0,0],\n// [0,0,0,0,0,1,1,1,1,1,1,0,0,0,0,0],\n// [0,0,0,0,1,1,1,1,1,1,1,1,0,0,0,0],\n// [0,0,0,0,1,1,1,1,1,1,1,1,0,0,0,0],\n// [0,0,0,0,1,1,1,1,1,1,1,1,0,0,0,0],\n// [0,0,0,0,1,1,1,1,1,1,1,1,0,0,0,0],\n// [0,0,0,0,1,1,1,1,1,1,1,1,0,0,0,0],\n// [0,0,0,0,1,1,1,1,1,1,1,1,0,0,0,0],\n// [0,0,0,0,1,1,1,1,1,1,1,1,0,0,0,0],\n// [0,0,0,0,1,1,1,1,1,1,1,1,0,0,0,0],\n// [0,0,0,0,1,1,1,1,1,1,1,1,0,0,0,0],\n// [0,0,0,0,1,1,1,1,1,1,1,1,0,0,0,0],\n// [0,0,0,0,1,1,1,1,1,1,1,1,0,0,0,0],\n// [0,0,0,0,1,1,1,1,1,1,1,1,0,0,0,0],\n// [0,0,0,0,1,1,1,1,1,1,1,1,0,0,0,0],\n// [0,0,0,0,1,1,1,1,1,1,1,1,0,0,0,0],\n// [0,0,0,0,1,1,1,1,1,1,1,1,0,0,0,0],\n// [0,0,0,0,1,1,1,1,1,1,1,1,0,0,0,0],\n// [0,0,0,0,1,1,1,1,1,1,1,1,0,0,0,0],\n// [0,0,0,0,1,1,1,1,1,1,1,1,0,0,0,0],\n// [0,0,0,0,1,1,1,1,1,1,1,1,0,0,0,0],\n// [0,0,0,0,1,1,1,1,1,1,1,1,0,0,0,0],\n// [0,0,0,0,1,1,1,1,1,1,1,1,0,0,0,0],\n// [0,0,0,0,1,1,1,1,1,1,1,1,0,0,0,0],\n// [0,0,0,0,1,1,1,1,1,1,1,1,0,0,0,0],\n// [0,0,0,0,1,1,1,1,1,1,1,1,0,0,0,0],\n// [0,0,0,0,1,1,1,1,1,1,1,1,0,0,0,0],\n// [0,0,0,0,0,1,1,1,1,1,1,0,0,0,0,0],\n// [0,0,0,0,0,1,1,1,1,1,1,0,0,0,0,0],\n// [0,0,0,0,0,1,1,1,1,1,1,0,0,0,0,0],\n// [0,0,0,0,0,0,1,1,1,1,0,0,0,0,0,0],\n// [0,0,0,0,0,0,1,1,1,1,0,0,0,0,0,0],\n// [0,0,0,0,0,0,0,1,1,0,0,0,0,0,0,0],\n// [0,0,0,0,0,0,0,1,1,0,0,0,0,0,0,0]]\ncontract Web3Sword is\n    Initializable,\n    ERC1155Upgradeable,\n    OwnableUpgradeable,\n    UUPSUpgradeable\n{\n    mapping(uint256 => uint256) public numberById;\n\n    mapping(uint256 => string) public imgURLById;\n\n    // mint = 1\n    // marketing = 2\n    // lucky = 3\n    // thirdparty = 4\n    // airdrop = 5\n    // twitter = 6\n    uint8 constant private mint = 1;\n    uint8 constant private marketing = 2;\n    uint8 constant private lucky = 3;\n    uint8 constant private thirdparty = 4;\n    uint8 constant private airdrop = 5;\n    uint8 constant private twitter = 6;\n\n    bool fullyMint;\n\n    uint8[][] public swordMatrix;\n\n    event BuySuccess(address indexed buyer, uint256 tokenId, uint256 value);\n    event SocialClaimSuccess(address indexed claimer, uint256 tokenId, uint8 t);\n    event Withdrawal(address indexed, uint256 value);\n\n    function initialize() public initializer {\n        __ERC1155_init(\"\");\n        __Ownable_init();\n        __UUPSUpgradeable_init();\n\n        fullyMint = false;\n\n        swordMatrix.push([0, 0, 0, 0, 0, 0, 0, 1, 1, 0, 0, 0, 0, 0, 0, 0]);\n        swordMatrix.push([0, 0, 0, 0, 0, 0, 0, 1, 1, 0, 0, 0, 0, 0, 0, 0]);\n        swordMatrix.push([0, 0, 0, 0, 0, 0, 1, 1, 1, 1, 0, 0, 0, 0, 0, 0]);\n        swordMatrix.push([0, 0, 0, 0, 0, 0, 1, 1, 1, 1, 0, 0, 0, 0, 0, 0]);\n        swordMatrix.push([0, 0, 0, 0, 0, 0, 0, 1, 1, 0, 0, 0, 0, 0, 0, 0]);\n        swordMatrix.push([0, 0, 0, 0, 0, 0, 0, 1, 1, 0, 0, 0, 0, 0, 0, 0]);\n        swordMatrix.push([0, 0, 0, 0, 0, 0, 0, 1, 1, 0, 0, 0, 0, 0, 0, 0]);\n        swordMatrix.push([0, 0, 0, 0, 0, 0, 0, 1, 1, 0, 0, 0, 0, 0, 0, 0]);\n        swordMatrix.push([0, 0, 0, 0, 0, 0, 0, 1, 1, 0, 0, 0, 0, 0, 0, 0]);\n        swordMatrix.push([0, 0, 0, 0, 0, 0, 0, 1, 1, 0, 0, 0, 0, 0, 0, 0]);\n        swordMatrix.push([0, 0, 0, 0, 0, 0, 0, 1, 1, 0, 0, 0, 0, 0, 0, 0]);\n        swordMatrix.push([0, 0, 0, 0, 0, 0, 0, 1, 1, 0, 0, 0, 0, 0, 0, 0]);\n        swordMatrix.push([0, 0, 0, 0, 0, 0, 0, 6, 6, 0, 0, 0, 0, 0, 0, 0]);\n        swordMatrix.push([0, 0, 0, 0, 0, 0, 0, 6, 6, 0, 0, 0, 0, 0, 0, 0]);\n        swordMatrix.push([1, 1, 1, 1, 1, 1, 1, 1, 1, 1, 1, 1, 1, 1, 1, 1]);\n        swordMatrix.push([1, 1, 1, 1, 1, 1, 1, 1, 1, 1, 1, 1, 1, 1, 1, 1]);\n        swordMatrix.push([0, 1, 1, 1, 1, 4, 4, 4, 4, 4, 4, 1, 1, 1, 1, 0]);\n        swordMatrix.push([0, 0, 0, 1, 1, 4, 4, 4, 4, 4, 4, 1, 1, 0, 0, 0]);\n        swordMatrix.push([0, 0, 0, 1, 1, 1, 1, 1, 1, 1, 1, 1, 1, 0, 0, 0]);\n        swordMatrix.push([0, 0, 0, 0, 1, 6, 6, 1, 1, 6, 6, 1, 0, 0, 0, 0]);\n        swordMatrix.push([0, 0, 0, 0, 1, 3, 3, 3, 3, 3, 3, 1, 0, 0, 0, 0]);\n        swordMatrix.push([0, 0, 0, 0, 0, 1, 1, 1, 3, 1, 1, 0, 0, 0, 0, 0]);\n        swordMatrix.push([0, 0, 0, 0, 1, 1, 1, 1, 1, 1, 1, 1, 0, 0, 0, 0]);\n        swordMatrix.push([0, 0, 0, 0, 4, 4, 4, 4, 6, 6, 1, 1, 0, 0, 0, 0]);\n        swordMatrix.push([0, 0, 0, 0, 4, 4, 4, 4, 6, 6, 1, 1, 0, 0, 0, 0]);\n        swordMatrix.push([0, 0, 0, 0, 4, 4, 4, 4, 4, 4, 1, 1, 0, 0, 0, 0]);\n        swordMatrix.push([0, 0, 0, 0, 4, 4, 4, 4, 4, 4, 1, 1, 0, 0, 0, 0]);\n        swordMatrix.push([0, 0, 0, 0, 1, 1, 6, 6, 5, 5, 5, 1, 0, 0, 0, 0]);\n        swordMatrix.push([0, 0, 0, 0, 1, 1, 6, 6, 5, 5, 5, 1, 0, 0, 0, 0]);\n        swordMatrix.push([0, 0, 0, 0, 1, 1, 4, 4, 5, 5, 5, 1, 0, 0, 0, 0]);\n        swordMatrix.push([0, 0, 0, 0, 1, 1, 4, 4, 5, 5, 5, 1, 0, 0, 0, 0]);\n        swordMatrix.push([0, 0, 0, 0, 1, 5, 5, 5, 6, 6, 1, 1, 0, 0, 0, 0]);\n        swordMatrix.push([0, 0, 0, 0, 1, 1, 5, 5, 6, 6, 1, 1, 0, 0, 0, 0]);\n        swordMatrix.push([0, 0, 0, 0, 1, 1, 5, 5, 4, 4, 1, 1, 0, 0, 0, 0]);\n        swordMatrix.push([0, 0, 0, 0, 1, 1, 5, 5, 4, 4, 1, 1, 0, 0, 0, 0]);\n        swordMatrix.push([0, 0, 0, 0, 1, 1, 6, 6, 4, 4, 4, 4, 0, 0, 0, 0]);\n        swordMatrix.push([0, 0, 0, 0, 1, 1, 6, 6, 4, 4, 4, 4, 0, 0, 0, 0]);\n        swordMatrix.push([0, 0, 0, 0, 1, 1, 4, 4, 4, 4, 4, 4, 0, 0, 0, 0]);\n        swordMatrix.push([0, 0, 0, 0, 1, 1, 4, 4, 4, 4, 4, 4, 0, 0, 0, 0]);\n        swordMatrix.push([0, 0, 0, 0, 1, 1, 1, 1, 6, 6, 1, 1, 0, 0, 0, 0]);\n        swordMatrix.push([0, 0, 0, 0, 1, 1, 1, 1, 6, 6, 1, 1, 0, 0, 0, 0]);\n        swordMatrix.push([0, 0, 0, 0, 1, 2, 2, 2, 2, 2, 2, 1, 0, 0, 0, 0]);\n        swordMatrix.push([0, 0, 0, 0, 1, 2, 2, 2, 2, 2, 2, 1, 0, 0, 0, 0]);\n        swordMatrix.push([0, 0, 0, 0, 1, 1, 6, 6, 2, 1, 1, 1, 0, 0, 0, 0]);\n        swordMatrix.push([0, 0, 0, 0, 1, 1, 6, 6, 2, 1, 1, 1, 0, 0, 0, 0]);\n        swordMatrix.push([0, 0, 0, 0, 1, 1, 1, 4, 4, 1, 1, 1, 0, 0, 0, 0]);\n        swordMatrix.push([0, 0, 0, 0, 1, 1, 1, 4, 6, 1, 1, 1, 0, 0, 0, 0]);\n        swordMatrix.push([0, 0, 0, 0, 0, 1, 1, 6, 6, 1, 1, 0, 0, 0, 0, 0]);\n        swordMatrix.push([0, 0, 0, 0, 0, 1, 1, 1, 1, 1, 1, 0, 0, 0, 0, 0]);\n        swordMatrix.push([0, 0, 0, 0, 0, 1, 1, 1, 1, 1, 1, 0, 0, 0, 0, 0]);\n        swordMatrix.push([0, 0, 0, 0, 0, 0, 1, 1, 1, 1, 0, 0, 0, 0, 0, 0]);\n        swordMatrix.push([0, 0, 0, 0, 0, 0, 1, 1, 1, 1, 0, 0, 0, 0, 0, 0]);\n        swordMatrix.push([0, 0, 0, 0, 0, 0, 0, 1, 1, 0, 0, 0, 0, 0, 0, 0]);\n        swordMatrix.push([0, 0, 0, 0, 0, 0, 0, 1, 1, 0, 0, 0, 0, 0, 0, 0]);\n    }\n\n    function buy() public payable {\n\n    }\n\n    function _mint(address to, uint256 id, uint8 t) internal {\n        \n    }\n\n    // Extract eth and send events so that everyone can know\n    function withdraw(uint256 value) public onlyOwner {\n        require(value > 0);\n        require(value <= address(this).balance);\n        payable(msg.sender).transfer(value);\n        emit Withdrawal(msg.sender, value);\n    }\n\n    // function mint(\n    //     address account,\n    //     uint256 id,\n    //     uint256 amount,\n    //     bytes memory data\n    // ) public onlyOwner {\n    //     _mint(account, id, amount, data);\n    // }\n\n    function name() public pure returns (string memory) {\n        return \"Web3Sword\";\n    }\n\n    function symbol() public pure returns (string memory) {\n        return \"SWD\";\n    }\n\n    function imgURL(uint256 id) public view returns (string memory) {\n        return imgURLById[id];\n    }\n\n    function description(uint256) public pure returns (string memory) {\n        return \"web3 sword\";\n    }\n\n    function _authorizeUpgrade(address newImplementation)\n        internal\n        override\n        onlyOwner\n    {\n        \n    }\n}\n",
  "sourcePath": "/Users/alberthuang/code/art-contracts/contracts/Web3Sword.sol",
  "compiler": {
    "name": "solc",
    "version": "0.8.9+commit.e5eed63a.Emscripten.clang"
  },
  "schemaVersion": "3.4.5",
  "updatedAt": "2022-03-13T12:13:22.306Z",
  "devdoc": {
    "kind": "dev",
    "methods": {
      "balanceOf(address,uint256)": {
        "details": "See {IERC1155-balanceOf}. Requirements: - `account` cannot be the zero address."
      },
      "balanceOfBatch(address[],uint256[])": {
        "details": "See {IERC1155-balanceOfBatch}. Requirements: - `accounts` and `ids` must have the same length."
      },
      "isApprovedForAll(address,address)": {
        "details": "See {IERC1155-isApprovedForAll}."
      },
      "owner()": {
        "details": "Returns the address of the current owner."
      },
      "proxiableUUID()": {
        "details": "Implementation of the ERC1822 {proxiableUUID} function. This returns the storage slot used by the implementation. It is used to validate that the this implementation remains valid after an upgrade. IMPORTANT: A proxy pointing at a proxiable contract should not be considered proxiable itself, because this risks bricking a proxy that upgrades to it, by delegating to itself until out of gas. Thus it is critical that this function revert if invoked through a proxy. This is guaranteed by the `notDelegated` modifier."
      },
      "renounceOwnership()": {
        "details": "Leaves the contract without owner. It will not be possible to call `onlyOwner` functions anymore. Can only be called by the current owner. NOTE: Renouncing ownership will leave the contract without an owner, thereby removing any functionality that is only available to the owner."
      },
      "safeBatchTransferFrom(address,address,uint256[],uint256[],bytes)": {
        "details": "See {IERC1155-safeBatchTransferFrom}."
      },
      "safeTransferFrom(address,address,uint256,uint256,bytes)": {
        "details": "See {IERC1155-safeTransferFrom}."
      },
      "setApprovalForAll(address,bool)": {
        "details": "See {IERC1155-setApprovalForAll}."
      },
      "supportsInterface(bytes4)": {
        "details": "See {IERC165-supportsInterface}."
      },
      "transferOwnership(address)": {
        "details": "Transfers ownership of the contract to a new account (`newOwner`). Can only be called by the current owner."
      },
      "upgradeTo(address)": {
        "details": "Upgrade the implementation of the proxy to `newImplementation`. Calls {_authorizeUpgrade}. Emits an {Upgraded} event."
      },
      "upgradeToAndCall(address,bytes)": {
        "details": "Upgrade the implementation of the proxy to `newImplementation`, and subsequently execute the function call encoded in `data`. Calls {_authorizeUpgrade}. Emits an {Upgraded} event."
      },
      "uri(uint256)": {
        "details": "See {IERC1155MetadataURI-uri}. This implementation returns the same URI for *all* token types. It relies on the token type ID substitution mechanism https://eips.ethereum.org/EIPS/eip-1155#metadata[defined in the EIP]. Clients calling this function must replace the `\\{id\\}` substring with the actual token type ID."
      }
    },
    "version": 1
  },
  "userdoc": {
    "kind": "user",
    "methods": {},
    "version": 1
  }
}